:040000000C9451000B
:100004000C9400000C9400000C9400000C9400006C
:100014000C9400000C9400000C9400000C9400005C
:100024000C9400000C9400000C9400000C9400004C
:100034000C94C3000C9400000C9400000C94000079
:100044000C9400000C9400000C9400000C948B00A1
:100054000C9400000C94AB000C9400000C94000071
:100064000C9400000C9400000C9400000C9400000C
:100074000C9400000C9400001027E80364000A00AC
:100084000100001000011000010001002D4E414E3E
:1000940000494E460000010010028E000000F89452
:1000A400EE27EFBBF1E0F5BFE5BFF8E1A895A4B7F3
:1000B400A77FA4BFF0936000E09360008DE0A2E00E
:1000C400BB27ED938A95E9F780E094E0A0E0B1E0E6
:1000D400ED930197E9F7EAE9F0E0859195910097AE
:1000E40061F0A591B59105901590BF01F0010590BF
:1000F4000D920197E1F7FB01F0CFE0E0EEBBEABD22
:10010400EBBDEFEFEDBFE4E0EEBFC0E0D2E00C9456
:10011400C900EA93FA93EFB7EA931A930A931091FA
:10012400C0000091C600E12FEC7181F4E32D3394FB
:10013400F0E0E050FE4F0083E8E0E31509F43324D7
:100144005394E8E0E51511F45524F09A09911991B6
:1001540013C0EA93FA93EFB7EA93662069F06A94BE
:10016400E72D7394F0E0E85FFD4FE081E093C60073
:10017400E8E0E71509F47724E991EFBFF991E991F3
:1001840018955E9B02C05E9801C05E9A189501E0C6
:1001940010E037D0EFE0E4B94D9917C0E9E00E94D0
:1001A4006C01E8E00E946C01ECE00E946C01E4E068
:1001B4000E946C01E6E00E946C01E2E00E946C0186
:1001C400E3E00E946C01E1E016C0E1E00E946C01F2
:1001D400E3E00E946C01E2E00E946C01E6E00E9410
:1001E4006C01E4E00E946C01ECE00E946C01E8E028
:1001F4000E946C01E9E0E5B9D8010E947001CCCFFE
:10020400FFCFE0E8E0936100E0E0E0936100E2B951
:10021400E1B9E5B9E4B9E8B9EFEFE7B9E0E2EBB980
:10022400E0E5EAB9E0E0E4BDE5BDE6BDE7BDE8BD73
:10023400E0938000EDE0E0938100E0E0E09385004E
:10024400E0938400E0938700E0938600ECE4E0937D
:100254008900E0E4E0938800E0E0E0938B00E09321
:100264008A00E093B600E093B000E093B100E0931D
:10027400B200E093B300E093B400E0936900EDBBF7
:10028400E0936800E0936E00E2E0E0936F00E0E04A
:10029400E0937000E093C000E8EDE093C100E6E075
:1002A400E093C200E0E0E093C500E1E8E093C4001D
:1002B400E0E0E093C900E0E8E0BFE0E0E0937B0029
:1002C400E0937F00A895E8E1E0936000E8E0E09324
:1002D40060000895E5B9D8010C947001109639F0C6
:1002E40088E893E10197F1F7A8951197C9F7089564
:00000001FF
